:0A000000010A6400C40BAB0BDE0B19
:100356006B006C000A023D0009023C001D028C0085
:100366004307B70B1C028B0003060008BA0B010CEF
:100376003C007D001C02EB010306AC021D02EC01F1
:10038600AD0BC00C0200080C0600C704E7044604C7
:1003960026040604460526050605DC0C2900050C80
:1003A6002A000309460426040604010C2900000C51
:1003B6002A000409CD0B6D006E000A023D000902F9
:1003C6003C001D028E004307EA0B1C028D0003064B
:1003D6000008030C2C00970C2B00EB02F00BEC0230
:1003E600F00BF50B010C3C007D001C02ED01030631
:0803F600AE021D02EE01E00B56
:021FFE00EBFFF7
:00000001FF
