:08000000010A6400D90BC00BDA
:100380006B006C000A023D0009023C001D028C005B
:100390004307CC0B1C028B0003060008CF0B010C9B
:1003A0003C007D001C02EB010306AC021D02EC01C7
:1003B000C20BC00C0200080C0600C704E704460488
:1003C000260406046606F00B0605B40C2900000C92
:1003D0002A0003090604280C2900050C2A00030939
:1003E0006607E20B0605320C2900000C2A000309FF
:0E03F0000604AA0C2900050C2A000309E20BE2
:021FFE00EBFFF7
:00000001FF
