:08000000010A6400B90BA00B1A
:100340006B006C000A023D0009023C001D028C009B
:100350004307AC0B1C028B0003060008AF0B010C1B
:100360003C007D001C02EB010306AC021D02EC0107
:10037000A20BC00C02000C0C0600C704E7044604E4
:100380002604060466074606D10B0605B40C2900B0
:10039000000C2A0003090604280C2900050C2A0079
:1003A000030966064606E00B0605960C2900000CBC
:1003B0002A0003090604460C2900050C2A0003093B
:1003C00066074607EF0B06057D0C2900000C2A0086
:1003D000030906045F0C2900050C2A0003096606C0
:1003E0004607C20B06056E0C2900000C2A00030903
:0E03F00006046E0C2900050C2A000309C20B3E
:021FFE00EBFFF7
:00000001FF
